:020000001028C6
:10000800FE00030E83120313A2000408A3000A08CB
:10001800A4007F08A50057291128FC018313463046
:1000280084005D30B7278301392B83120313BF0087
:100038003530B7003708BA00013083120313B4070C
:10004800FF30340784006027B7003708C200420831
:10005800031950292530420603193E284208B700E3
:100068003F0884003708831380000130B700370841
:10007800BF072028C001C101BC01340884006027E3
:100088007427031C752883120313C001C1010A30A9
:1000980083120313A6000030A7004108A9004008F6
:1000A800A800FD26831203132708C1002608C000F4
:1000B800340884006027D03EB700FF3003180030B2
:1000C800B8003708C0070318C10A3808C10701304B
:1000D800B7003708B407340884006027742703186A
:1000E8004B28013083120313B407FF303407840010
:1000F8006027C200003A03195029643A0319882876
:100108000D3A031988282028831203133A0884001B
:1001180083130008BD00840A0008BE000230B7003F
:100128003708BA07BE1FA1280330B7003708BC0438
:10013800BD09BE09BD0A0319BE0AC201C20A0530BB
:1001480042060319C0284208B7003707013E840059
:100158006027B8006027B90039083E02031DB62899
:1001680038083D02031CC0280130B7003708C20711
:1001780005304206031DA728400841040319CE286C
:100188003C0803390319CE28FF30C0070318C10AF9
:10019800FF30C1074208B700B801B71BB8033808D9
:1001A800803AB9004108803A3902031DDD28400829
:1001B80037020318ED28831203134208B700B80169
:1001C800B71BB8033708C0023808031CC103C102B3
:1001D800F12883120313C001C10140084104031927
:1001E8000A292030B7003F088400370883138000AD
:1001F8000130B7003708BF07FF30C0070318C10A2E
:10020800FF30C10740084104031DF5283C080339A5
:10021800031919292D30B7003F08840037088313C4
:1002280080000130B7003708BF074208B700370819
:10023800BB00FF30B7003708BB073B0A031920286B
:100248000A30AE000030AF003B08B7003707013E68
:1002580084006027A6006027A7003E08A9003D0883
:10026800A8006625831203132708B1002608B000EA
:100278002026831203132E08303EB8003808C20027
:100288004208B7003F088400370883138000013014
:10029800B7003708BF071D29831203133F088400DE
:1002A8008313800108008C1E64298B131A08A00090
:1002B8002008D800FC167C149A018C128B17772A18
:1002C8000B1D772A0130D2070318D30A0030D30751
:1002D8000130D4070318D50A0030D5078B12050C56
:1002E800A000A00C200C01398427031C9A29831232
:1002F8000313D201D3010130D6070318D70A0030FF
:10030800D7075708803AFF0080307F02031D8E29E7
:1003180006305602031C942983120313D601D70111
:10032800FC15831203138519222A952983120313B6
:10033800050E01398427031C222A83120313D201D4
:10034800D30156035704031DC6290130C8070318F3
:10035800C90A0030C9074908803AFF0080307F0287
:10036800031DB82965304802031CBE2983120313F4
:10037800C801C901831203134908F7004808F600A9
:100388008026212A02308312031356065704031DC0
:10039800E3290130CC070318CD0A0030CD074D08FA
:1003A800803AFF0081307F02031DDC2900304C02B7
:1003B800031C212A83120313CC01CD01212A033007
:1003C80056065704031D052A0130CA070318CB0A2D
:1003D8000030CB074B08803AFF0080307F02031DB6
:1003E800F72965304A02031CFD2983120313CA0149
:1003F800CB01831203134B08F7004A08F600802646
:10040800212A04308312031356065704031D212A98
:100418000130CE070318CF0A0030CF074F08803AC3
:10042800FF0081307F02031D1B2A00304E02031C8F
:10043800212A83120313CE01CF017C166430831264
:10044800031352065304031D5A2A56085704031966
:100458005A2AD601D701D201D301FC150030AD27A5
:1004680083120313A000A1012008C8002108C900B5
:100478000130AD2783120313A000A1012008CC008E
:100488002108CD000230AD2783120313A000A1017B
:100498002008CA002108CB000330AD2783120313BC
:1004A800A000A1012008CE002108CF005108550660
:1004B800031D602A5008540603197C1D732AD401B1
:1004C800D501051005138513051185107C11D80178
:1004D8009A01831603138C16831203139817153089
:1004E80081000B118B162508FF0024088A002308B9
:1004F8008400220E8300FE0E7E0E09000730831250
:1005080003139F00383083160313850002308600DA
:1005180038308312031385008601171497141715B2
:1005280097151830831603139200AF308312031304
:10053800950017129712121492101215193083167B
:10054800031399001813981218121815831203131D
:1005580098171813181618119810831603138C1669
:10056800831203138C128B170B17981341278312CE
:10057800031398177F30A127FF3A031DE82A783024
:1005880083120313B2003208A6000030AC260E30E6
:1005980083120313B2003208A6000130AC2678306B
:1005A80083120313B2003208A6000230AC263230A0
:1005B80083120313B2003208A6000330AC2683125C
:1005C8000313A6017F30AC260030A1278312031342
:1005D800B200B3013208C8003308C9000130A127AE
:1005E80083120313B200B3013208CC003308CD00E4
:1005F8000230A12783120313B200B3013208CA00E4
:100608003308CB000330A12783120313B200B301D0
:100618003208CE003308CF008B160B118316031354
:1006280081128111011481140115323083120313D0
:10063800AC000030AD00542615308312031381003E
:10064800D601D701FC117C12FC12D801D201D301CA
:100658007C10FC10D401D501D001D1017C110130EE
:10066800C6000030C700D52608008222FC1E3E2B9B
:100678007A24FC127C1CD82B83120313981383163C
:1006880003138C124330831203135806031D722B75
:100698007C154B08AD004A08AC005426831203139E
:1006A80046034704031D5B2B05140513622B023018
:1006B80046064704031D642B0510051785136C2B8C
:1006C800033046064704031D6C2B051005138517D8
:1006D800851005114F08D1004E08C32B523058061B
:1006E800031D962B7C154908AD004808AC0054261C
:1006F80083120313051005138513851405110130A2
:10070800C6070318C70A0030C7074708803AFF0022
:1007180080307F02031D922B04304602031CBE2B3F
:100728000130B92B4C305806031DC72B7C154908DE
:10073800AD004808AC0054268312031305100513B6
:10074800851385100515FF30C6070318C70AFF3043
:10075800C7074708803AFF0080307F02031DB62B89
:10076800013046020318BE2B033083120313C60060
:100778000030C700831203134D08D1004C08D00085
:10078800D401D501D72B54305806031DD12B0510A1
:100798000513851385100511D72B831603138C16A3
:1007A8008312031398177C10FC1DDB2BDF237C1EA0
:1007B8003A2BF7243A2B7C16831203139813013033
:1007C800E2258030E2254330A4256F30A4256E3021
:1007D800A4256630A4256930A4256730A4252030D7
:1007E800A42583120313560357040319002C02305F
:1007F80056065704031D0D2C4D30A4256F30A42533
:100808007430A4256F30A4257230A4253030A42577
:10081800752C033083120313560657040319192C39
:10082800043056065704031D2A2C4D30A425543095
:10083800A4253A30A4253130A4252F30A425323000
:10084800A4252F30A4253330A425752C0530831218
:10085800031356065704031D6E2C5330A42561302C
:10086800A4256C30A4257630A4256130A4257C12FB
:10087800831203134808AC002C08A6000030AC26ED
:10088800831203134C08AC002C08A6000130AC26D8
:10089800831203134A08AC002C08A6000230AC26C9
:1008A800831203134E08AC002C08A6000330AC26B4
:1008B80083120313D601D7010830AE009D30AD0076
:1008C8000B30AC00AC0B662CAD0B662CAE0B662C5B
:1008D8006D2C742C8312031356085704031D752CB2
:1008E800D526FC11831203139817080083120313EB
:1008F80098130130E2258030E22543308312031338
:100908005806031D932C4330A4256930A425723062
:10091800A4256330A4256C30A4256530F22C523010
:10092800831203135806031DA72C5330A4257730D0
:10093800A4256930A4257030A4256530A4252D3060
:10094800A4255230F22C4C30831203135806031D91
:10095800BB2C5330A4257730A4256930A4257030EA
:10096800A4256530A4252D30A4254C30F22C543014
:10097800831203135806031DC72C5430A425613075
:10098800A4257030F22C6B30831203135806031D14
:10099800DF2C4C30A4256530A4256130A4257030A7
:1009A800A4252030A425C030E2254F30A4254B30A3
:1009B800A425FC14F32C5530A4256E30A4256B30E7
:1009C800A4256E30A4256F30A4257730A4256E3079
:1009D800A4253A30A425831203135808A4258312AA
:1009E800031398170800831203139813C030E225E5
:1009F80083120313560357040319072D03305606B1
:100A08005704031D0D2D5630A4256530A4256C30E0
:100A1800222D023083120313560657040319192D89
:100A2800043056065704031D252D5430A42565307F
:100A3800A4256D30A4257030A4256F30A4253A3044
:100A4800A4258312031356035704031D2F2D4908A9
:100A5800C40048084F2D023083120313560657046A
:100A6800031D3A2D4D08C4004C084F2D0330831246
:100A7800031356065704031D452D4B08C4004A08A6
:100A88004F2D04308312031356065704031D512DAE
:100A98004F08C4004E08C300942783120313590853
:100AA800A425831203135A08A425831203135B0891
:100AB800A425831203135C08A42583120313981733
:100AC8007C12080083120313AB01AC01260827042B
:100AD80003199F2DAD01AD0AA71B7E2D0130031010
:100AE800A60DA70DFF3E031D732D0130AA002A088D
:100AF800AD07702D01300310AB0DAC0DFF3E031D8B
:100B08007F2D27082902031D8B2D26082802031C88
:100B1800942D2608A8022708031CA903A9022B1450
:100B280001300310A70CA60CFF3E031D952D0130C4
:100B3800AD02031D7E2D2C08A7002B08A600080077
:100B480083120313A80006152130A600A60BAA2DB0
:100B58008312031306100F300605A6002808F03983
:100B68002604860006140730A7007D30A600A60BD1
:100B7800BB2DA70BBB2D8312031306100F300605E0
:100B8800A6002808A70003300310A70DFF3E031D89
:100B9800C82D0310270D2604860006140730A70069
:100BA8007D30A600A60BD62DA70BD62D83120313D6
:100BB80006100D30A600A60BDF2D080083120313C4
:100BC800A80006112130A600A60BE82D83120313F6
:100BD80006100F300605A6002808F03926048600FE
:100BE80006140730A7007D30A600A60BF92DA70B29
:100BF800F92D8312031306100F300605A6002808E6
:100C0800A70003300310A70DFF3E031D062E031097
:100C1800270D2604860006140730A7007D30A6009D
:100C2800A60B142EA70B142E8312031306100D30D7
:100C3800A600A60B1D2E0800831203132E082F04EE
:100C480003194F2EB301B30AAF1B362E0130031020
:100C5800AE0DAF0DFF3E031D2B2E0130B200320842
:100C6800B307282E2F083102031D3C2E2E08300210
:100C7800031C442E2E08B0022F08031CB103B10236
:100C880001300310AF0CAE0CFF3E031D452E0130A2
:100C9800B302031D362E3108AF003008AE0008003D
:100CA8008312031312112D08A7002C08A6000A307E
:100CB800A8000030A900FD26831203132708B100FD
:100CC8002608B0003108AF003008AE002F0DAF0C79
:100CD800AE0C2F0DAF0CAE0C2E089500B01C762E66
:100CE8009716772E9712301C7B2E17167C2E17120C
:100CF80012149210121508008312031312117708A8
:100D0800F1007608F0000A30F2000030F3002027E6
:100D18007108FB007008FA007B08F9007A08F800EF
:100D2800790DF90CF80C790DF90CF80C7808831288
:100D380003139500FA1CA22E9716A32E97127A1C5D
:100D4800A72E1716A82E17121214921012150800A3
:100D580083120313AB000B0D0B0D0139A700A8017B
:100D68002708A9002808AA002B08831603139B004C
:100D7800831203132608831603139A008B1B8B1305
:100D88001C1555309D00AA309D009C149C18CA2E35
:100D98001C118312031329082A04031908008B174E
:100DA80008008312031398130130E2258030E225EE
:100DB800FC1CE22E4F30A4254B30F72E4130A425E1
:100DC8006730A4257530A4256130A4257230A42588
:100DD8006430A4252E30A4252030A4254330A42532
:100DE8006F30A4256E30A4258312031398177C1244
:100DF800080083120313AA01AB01261C092F280837
:100E0800AA070318AB0A2908AB0701300310A80D7D
:100E1800A90DFF3E031D0A2F01300310A70CA60CD5
:100E2800FF3E031D112F26082704031D012F2B0841
:100E3800A7002A08A6000800F401F501701C2A2F53
:100E48007208F4070318F50A7308F5070130031050
:100E5800F20DF30DFF3E031D2B2F01300310F10C93
:100E6800F00CFF3E031D322F70087104031D222F62
:100E78007508F1007408F000080083120313860156
:100E8800061106101430AA007930A900A90B4A2FC0
:100E9800AA0B4A2F4F2F0330E2250330E2250330F7
:100EA800E2250230E2252830E2250C30E225013027
:100EB800E2250630E225080007308A000408840A83
:100EC80082070034013400340A34003464340034B6
:100ED800E834033410342734253434346934003486
:100EE80083120313A700A6013A3027020318822FA2
:100EF80030302702031C822FA601A60A260C080000
:100F0800F2002730F100F530F000F00B892FF10BDB
:100F1800892F7208031D922F03140800031008007C
:100F28000B3083120313C5004508B4004408B6000B
:100F38004308B50059301920080083120313A6008E
:100F48002608831603139B001C141C18A92F1A08C3
:100F58000800F0007008831603139B001C141C186B
:100F6800B32F1A08080064008001840A04060319D4
:060F780000340406B82F4E
:02400E0038FF79
:00000001FF
